{
  "contractName": "EmploymentAgreement",
  "abi": [
    {
      "constant": true,
      "inputs": [],
      "name": "outstandingBalance",
      "outputs": [
        {
          "name": "",
          "type": "uint256"
        }
      ],
      "payable": false,
      "stateMutability": "view",
      "type": "function"
    },
    {
      "constant": true,
      "inputs": [],
      "name": "ETHUSD",
      "outputs": [
        {
          "name": "",
          "type": "string"
        }
      ],
      "payable": false,
      "stateMutability": "view",
      "type": "function"
    },
    {
      "constant": true,
      "inputs": [],
      "name": "employee",
      "outputs": [
        {
          "name": "",
          "type": "address"
        }
      ],
      "payable": false,
      "stateMutability": "view",
      "type": "function"
    },
    {
      "constant": true,
      "inputs": [],
      "name": "employer",
      "outputs": [
        {
          "name": "",
          "type": "address"
        }
      ],
      "payable": false,
      "stateMutability": "view",
      "type": "function"
    },
    {
      "constant": true,
      "inputs": [],
      "name": "lastPaymentTime",
      "outputs": [
        {
          "name": "",
          "type": "uint256"
        }
      ],
      "payable": false,
      "stateMutability": "view",
      "type": "function"
    },
    {
      "anonymous": false,
      "inputs": [
        {
          "indexed": false,
          "name": "description",
          "type": "string"
        }
      ],
      "name": "newOraclizeQuery",
      "type": "event"
    },
    {
      "anonymous": false,
      "inputs": [
        {
          "indexed": false,
          "name": "price",
          "type": "string"
        }
      ],
      "name": "newKrakenPriceTicker",
      "type": "event"
    },
    {
      "anonymous": false,
      "inputs": [
        {
          "indexed": false,
          "name": "employee",
          "type": "address"
        },
        {
          "indexed": false,
          "name": "oustandingBalance",
          "type": "uint256"
        }
      ],
      "name": "paymentRequest",
      "type": "event"
    },
    {
      "constant": false,
      "inputs": [],
      "name": "constructor",
      "outputs": [],
      "payable": false,
      "stateMutability": "nonpayable",
      "type": "function"
    },
    {
      "constant": false,
      "inputs": [],
      "name": "payEmployee",
      "outputs": [],
      "payable": true,
      "stateMutability": "payable",
      "type": "function"
    },
    {
      "constant": false,
      "inputs": [
        {
          "name": "myid",
          "type": "bytes32"
        },
        {
          "name": "result",
          "type": "string"
        }
      ],
      "name": "__callback",
      "outputs": [],
      "payable": false,
      "stateMutability": "nonpayable",
      "type": "function"
    },
    {
      "constant": false,
      "inputs": [
        {
          "name": "myid",
          "type": "bytes32"
        },
        {
          "name": "result",
          "type": "string"
        },
        {
          "name": "proof",
          "type": "bytes"
        }
      ],
      "name": "__callback",
      "outputs": [],
      "payable": false,
      "stateMutability": "nonpayable",
      "type": "function"
    },
    {
      "constant": false,
      "inputs": [],
      "name": "update",
      "outputs": [],
      "payable": true,
      "stateMutability": "payable",
      "type": "function"
    },
    {
      "constant": false,
      "inputs": [],
      "name": "getUSD",
      "outputs": [
        {
          "name": "",
          "type": "string"
        }
      ],
      "payable": false,
      "stateMutability": "nonpayable",
      "type": "function"
    }
  ],
  "bytecode": "0x6060604052341561000f57600080fd5b6116558061001e6000396000f3006060604052600436106100af576000357c0100000000000000000000000000000000000000000000000000000000900463ffffffff16806327dc297e146100b45780633133f2a71461011e57806338bbfa50146101475780635c88da6f146101f457806373db08441461028257806390fa17bb14610310578063a0a1a7d714610325578063a2e620451461037a578063ae200e7914610384578063dca36b9a146103d9578063dfe607f9146103e3575b600080fd5b34156100bf57600080fd5b61011c60048080356000191690602001909190803590602001908201803590602001908080601f0160208091040260200160405190810160405280939291908181526020018383808284378201915050505050509190505061040c565b005b341561012957600080fd5b61013161043e565b6040518082815260200191505060405180910390f35b341561015257600080fd5b6101f260048080356000191690602001909190803590602001908201803590602001908080601f0160208091040260200160405190810160405280939291908181526020018383808284378201915050505050509190803590602001908201803590602001908080601f01602080910402602001604051908101604052809392919081815260200183838082843782019150505050505091905050610444565b005b34156101ff57600080fd5b610207610563565b6040518080602001828103825283818151815260200191508051906020019080838360005b8381101561024757808201518184015260208101905061022c565b50505050905090810190601f1680156102745780820380516001836020036101000a031916815260200191505b509250505060405180910390f35b341561028d57600080fd5b61029561060b565b6040518080602001828103825283818151815260200191508051906020019080838360005b838110156102d55780820151818401526020810190506102ba565b50505050905090810190601f1680156103025780820380516001836020036101000a031916815260200191505b509250505060405180910390f35b341561031b57600080fd5b6103236106a9565b005b341561033057600080fd5b61033861074c565b604051808273ffffffffffffffffffffffffffffffffffffffff1673ffffffffffffffffffffffffffffffffffffffff16815260200191505060405180910390f35b610382610772565b005b341561038f57600080fd5b610397610a76565b604051808273ffffffffffffffffffffffffffffffffffffffff1673ffffffffffffffffffffffffffffffffffffffff16815260200191505060405180910390f35b6103e1610a9c565b005b34156103ee57600080fd5b6103f6610b0b565b6040518082815260200191505060405180910390f35b61043a828260006040518059106104205750595b9080825280601f01601f1916602001820160405250610444565b5050565b60055481565b61044c610b11565b73ffffffffffffffffffffffffffffffffffffffff163373ffffffffffffffffffffffffffffffffffffffff1614151561048557600080fd5b816002908051906020019061049b929190611570565b507ff5d9356ebb584d3c57a6d507d145b1e4a28ad9c1f5320d7f58edfed2a5aa6ba6600260405180806020018281038252838181546001816001161561010002031660029004815260200191508054600181600116156101000203166002900480156105485780601f1061051d57610100808354040283529160200191610548565b820191906000526020600020905b81548152906001019060200180831161052b57829003601f168201915b50509250505060405180910390a161055e610772565b505050565b61056b6115f0565b60028054600181600116156101000203166002900480601f0160208091040260200160405190810160405280929190818152602001828054600181600116156101000203166002900480156106015780601f106105d657610100808354040283529160200191610601565b820191906000526020600020905b8154815290600101906020018083116105e457829003601f168201915b5050505050905090565b60028054600181600116156101000203166002900480601f0160208091040260200160405190810160405280929190818152602001828054600181600116156101000203166002900480156106a15780601f10610676576101008083540402835291602001916106a1565b820191906000526020600020905b81548152906001019060200180831161068457829003601f168201915b505050505081565b33600360006101000a81548173ffffffffffffffffffffffffffffffffffffffff021916908373ffffffffffffffffffffffffffffffffffffffff1602179055504260068190555061074260017f01000000000000000000000000000000000000000000000000000000000000000260107f01000000000000000000000000000000000000000000000000000000000000000217610cda565b61074a610772565b565b600460009054906101000a900473ffffffffffffffffffffffffffffffffffffffff1681565b3073ffffffffffffffffffffffffffffffffffffffff1631600160009054906101000a900473ffffffffffffffffffffffffffffffffffffffff1673ffffffffffffffffffffffffffffffffffffffff1663524f38896040518163ffffffff167c01000000000000000000000000000000000000000000000000000000000281526004018080602001828103825260038152602001807f55524c0000000000000000000000000000000000000000000000000000000000815250602001915050602060405180830381600087803b151561084b57600080fd5b5af1151561085857600080fd5b505050604051805190501115610921577f46cb989ef9cef13e930e3b7f286225a086e716a90d63e0b7da85d310a9db0c9a60405180806020018281038252604b8152602001807f4f7261636c697a6520717565727920776173204e4f542073656e742c20706c6581526020017f6173652061646420736f6d652045544820746f20636f76657220666f7220746881526020017f652071756572792066656500000000000000000000000000000000000000000081525060600191505060405180910390a1610a74565b7f46cb989ef9cef13e930e3b7f286225a086e716a90d63e0b7da85d310a9db0c9a6040518080602001828103825260358152602001807f4f7261636c697a65207175657279207761732073656e742c207374616e64696e81526020017f6720627920666f722074686520616e737765722e2e000000000000000000000081525060400191505060405180910390a1610a72603c6040805190810160405280600381526020017f55524c0000000000000000000000000000000000000000000000000000000000815250608060405190810160405280604c81526020017f6a736f6e2868747470733a2f2f6170692e6b72616b656e2e636f6d2f302f707581526020017f626c69632f5469636b65723f706169723d455448555344292e726573756c742e81526020017f584554485a5553442e632e300000000000000000000000000000000000000000815250610ee8565b505b565b600360009054906101000a900473ffffffffffffffffffffffffffffffffffffffff1681565b3460055403600581905550600460009054906101000a900473ffffffffffffffffffffffffffffffffffffffff1673ffffffffffffffffffffffffffffffffffffffff166108fc349081150290604051600060405180830381858888f193505050501515610b0957600080fd5b565b60065481565b6000806000809054906101000a900473ffffffffffffffffffffffffffffffffffffffff1673ffffffffffffffffffffffffffffffffffffffff161415610b5e57610b5c60006112d0565b505b6000809054906101000a900473ffffffffffffffffffffffffffffffffffffffff1673ffffffffffffffffffffffffffffffffffffffff166338cc48316040518163ffffffff167c0100000000000000000000000000000000000000000000000000000000028152600401602060405180830381600087803b1515610be257600080fd5b5af11515610bef57600080fd5b50505060405180519050600160006101000a81548173ffffffffffffffffffffffffffffffffffffffff021916908373ffffffffffffffffffffffffffffffffffffffff160217905550600160009054906101000a900473ffffffffffffffffffffffffffffffffffffffff1673ffffffffffffffffffffffffffffffffffffffff1663c281d19e6040518163ffffffff167c0100000000000000000000000000000000000000000000000000000000028152600401602060405180830381600087803b1515610cbe57600080fd5b5af11515610ccb57600080fd5b50505060405180519050905090565b60008060009054906101000a900473ffffffffffffffffffffffffffffffffffffffff1673ffffffffffffffffffffffffffffffffffffffff161415610d2657610d2460006112d0565b505b6000809054906101000a900473ffffffffffffffffffffffffffffffffffffffff1673ffffffffffffffffffffffffffffffffffffffff166338cc48316040518163ffffffff167c0100000000000000000000000000000000000000000000000000000000028152600401602060405180830381600087803b1515610daa57600080fd5b5af11515610db757600080fd5b50505060405180519050600160006101000a81548173ffffffffffffffffffffffffffffffffffffffff021916908373ffffffffffffffffffffffffffffffffffffffff160217905550600160009054906101000a900473ffffffffffffffffffffffffffffffffffffffff1673ffffffffffffffffffffffffffffffffffffffff1663688dcfd7826040518263ffffffff167c010000000000000000000000000000000000000000000000000000000002815260040180827effffffffffffffffffffffffffffffffffffffffffffffffffffffffffffff19167effffffffffffffffffffffffffffffffffffffffffffffffffffffffffffff19168152602001915050600060405180830381600087803b1515610ed557600080fd5b5af11515610ee257600080fd5b50505050565b60008060008060009054906101000a900473ffffffffffffffffffffffffffffffffffffffff1673ffffffffffffffffffffffffffffffffffffffff161415610f3757610f3560006112d0565b505b6000809054906101000a900473ffffffffffffffffffffffffffffffffffffffff1673ffffffffffffffffffffffffffffffffffffffff166338cc48316040518163ffffffff167c0100000000000000000000000000000000000000000000000000000000028152600401602060405180830381600087803b1515610fbb57600080fd5b5af11515610fc857600080fd5b50505060405180519050600160006101000a81548173ffffffffffffffffffffffffffffffffffffffff021916908373ffffffffffffffffffffffffffffffffffffffff160217905550600160009054906101000a900473ffffffffffffffffffffffffffffffffffffffff1673ffffffffffffffffffffffffffffffffffffffff1663524f3889856040518263ffffffff167c01000000000000000000000000000000000000000000000000000000000281526004018080602001828103825283818151815260200191508051906020019080838360005b838110156110bc5780820151818401526020810190506110a1565b50505050905090810190601f1680156110e95780820380516001836020036101000a031916815260200191505b5092505050602060405180830381600087803b151561110757600080fd5b5af1151561111457600080fd5b50505060405180519050905062030d403a02670de0b6b3a76400000181111561114357600060010291506112c8565b600160009054906101000a900473ffffffffffffffffffffffffffffffffffffffff1673ffffffffffffffffffffffffffffffffffffffff1663adf59f99828787876040518563ffffffff167c0100000000000000000000000000000000000000000000000000000000028152600401808481526020018060200180602001838103835285818151815260200191508051906020019080838360005b838110156111fa5780820151818401526020810190506111df565b50505050905090810190601f1680156112275780820380516001836020036101000a031916815260200191505b50838103825284818151815260200191508051906020019080838360005b83811015611260578082015181840152602081019050611245565b50505050905090810190601f16801561128d5780820380516001836020036101000a031916815260200191505b50955050505050506020604051808303818588803b15156112ad57600080fd5b5af115156112ba57600080fd5b505050506040518051905091505b509392505050565b6000806112f0731d3b2638a7cc9f2cb3d298a3da7a90b67e5506ed611565565b111561135357731d3b2638a7cc9f2cb3d298a3da7a90b67e5506ed6000806101000a81548173ffffffffffffffffffffffffffffffffffffffff021916908373ffffffffffffffffffffffffffffffffffffffff16021790555060019050611560565b600061137273c03a2615d5efaf5f49f60b7bb6583eaec212fdf1611565565b11156113d55773c03a2615d5efaf5f49f60b7bb6583eaec212fdf16000806101000a81548173ffffffffffffffffffffffffffffffffffffffff021916908373ffffffffffffffffffffffffffffffffffffffff16021790555060019050611560565b60006113f47320e12a1f859b3feae5fb2a0a32c18f5a65555bbf611565565b1115611457577320e12a1f859b3feae5fb2a0a32c18f5a65555bbf6000806101000a81548173ffffffffffffffffffffffffffffffffffffffff021916908373ffffffffffffffffffffffffffffffffffffffff16021790555060019050611560565b60006114767393bbbe5ce77034e3095f0479919962a903f898ad611565565b11156114d9577393bbbe5ce77034e3095f0479919962a903f898ad6000806101000a81548173ffffffffffffffffffffffffffffffffffffffff021916908373ffffffffffffffffffffffffffffffffffffffff16021790555060019050611560565b60006114f87351efaf4c8b3c9afbd5ab9f4bbc82784ab6ef8faa611565565b111561155b577351efaf4c8b3c9afbd5ab9f4bbc82784ab6ef8faa6000806101000a81548173ffffffffffffffffffffffffffffffffffffffff021916908373ffffffffffffffffffffffffffffffffffffffff16021790555060019050611560565b600090505b919050565b6000813b9050919050565b828054600181600116156101000203166002900490600052602060002090601f016020900481019282601f106115b157805160ff19168380011785556115df565b828001600101855582156115df579182015b828111156115de5782518255916020019190600101906115c3565b5b5090506115ec9190611604565b5090565b602060405190810160405280600081525090565b61162691905b8082111561162257600081600090555060010161160a565b5090565b905600a165627a7a7230582003fb259218b19eb4199fcff96c9f7535c4779e9453fa472a93f6021904f4e2560029",
  "source": "pragma solidity ^0.4.8;\n\n// <ORACLIZE_API>\n/*\nCopyright (c) 2015-2016 Oraclize SRL\nCopyright (c) 2016 Oraclize LTD\n\n\n\nPermission is hereby granted, free of charge, to any person obtaining a copy\nof this software and associated documentation files (the \"Software\"), to deal\nin the Software without restriction, including without limitation the rights\nto use, copy, modify, merge, publish, distribute, sublicense, and/or sell\ncopies of the Software, and to permit persons to whom the Software is\nfurnished to do so, subject to the following conditions:\n\n\n\nThe above copyright notice and this permission notice shall be included in\nall copies or substantial portions of the Software.\n\n\n\nTHE SOFTWARE IS PROVIDED \"AS IS\", WITHOUT WARRANTY OF ANY KIND, EXPRESS OR\nIMPLIED, INCLUDING BUT NOT LIMITED TO THE WARRANTIES OF MERCHANTABILITY,\nFITNESS FOR A PARTICULAR PURPOSE AND NONINFRINGEMENT.  IN NO EVENT SHALL THE\nAUTHORS OR COPYRIGHT HOLDERS BE LIABLE FOR ANY CLAIM, DAMAGES OR OTHER\nLIABILITY, WHETHER IN AN ACTION OF CONTRACT, TORT OR OTHERWISE, ARISING FROM,\nOUT OF OR IN CONNECTION WITH THE SOFTWARE OR THE USE OR OTHER DEALINGS IN\nTHE SOFTWARE.\n*/\n\n\ncontract OraclizeI {\n    address public cbAddress;\n    function query(uint _timestamp, string _datasource, string _arg) payable returns (bytes32 _id);\n    function query_withGasLimit(uint _timestamp, string _datasource, string _arg, uint _gaslimit) payable returns (bytes32 _id);\n    function query2(uint _timestamp, string _datasource, string _arg1, string _arg2) payable returns (bytes32 _id);\n    function query2_withGasLimit(uint _timestamp, string _datasource, string _arg1, string _arg2, uint _gaslimit) payable returns (bytes32 _id);\n    function getPrice(string _datasource) returns (uint _dsprice);\n    function getPrice(string _datasource, uint gaslimit) returns (uint _dsprice);\n    function useCoupon(string _coupon);\n    function setProofType(byte _proofType);\n    function setConfig(bytes32 _config);\n    function setCustomGasPrice(uint _gasPrice);\n}\ncontract OraclizeAddrResolverI {\n    function getAddress() returns (address _addr);\n}\ncontract usingOraclize {\n    uint constant day = 60*60*24;\n    uint constant week = 60*60*24*7;\n    uint constant month = 60*60*24*30;\n    byte constant proofType_NONE = 0x00;\n    byte constant proofType_TLSNotary = 0x10;\n    byte constant proofStorage_IPFS = 0x01;\n    uint8 constant networkID_auto = 0;\n    uint8 constant networkID_mainnet = 1;\n    uint8 constant networkID_testnet = 2;\n    uint8 constant networkID_morden = 2;\n    uint8 constant networkID_consensys = 161;\n\n    OraclizeAddrResolverI OAR;\n    \n    OraclizeI oraclize;\n    modifier oraclizeAPI {\n        if(address(OAR)==0) oraclize_setNetwork(networkID_auto);\n        oraclize = OraclizeI(OAR.getAddress());\n        _;\n    }\n    modifier coupon(string code){\n        oraclize = OraclizeI(OAR.getAddress());\n        oraclize.useCoupon(code);\n        _;\n    }\n\n    function oraclize_setNetwork(uint8 networkID) internal returns(bool){\n        if (getCodeSize(0x1d3b2638a7cc9f2cb3d298a3da7a90b67e5506ed)>0){ //mainnet\n            OAR = OraclizeAddrResolverI(0x1d3b2638a7cc9f2cb3d298a3da7a90b67e5506ed);\n            return true;\n        }\n        if (getCodeSize(0xc03a2615d5efaf5f49f60b7bb6583eaec212fdf1)>0){ //ropsten testnet\n            OAR = OraclizeAddrResolverI(0xc03a2615d5efaf5f49f60b7bb6583eaec212fdf1);\n            return true;\n        }\n        if (getCodeSize(0x20e12a1f859b3feae5fb2a0a32c18f5a65555bbf)>0){ //ether.camp ide\n            OAR = OraclizeAddrResolverI(0x20e12a1f859b3feae5fb2a0a32c18f5a65555bbf);\n            return true;\n        }\n        if (getCodeSize(0x93bbbe5ce77034e3095f0479919962a903f898ad)>0){ //norsborg testnet\n            OAR = OraclizeAddrResolverI(0x93bbbe5ce77034e3095f0479919962a903f898ad);\n            return true;\n        }\n        if (getCodeSize(0x51efaf4c8b3c9afbd5ab9f4bbc82784ab6ef8faa)>0){ //browser-solidity\n            OAR = OraclizeAddrResolverI(0x51efaf4c8b3c9afbd5ab9f4bbc82784ab6ef8faa);\n            return true;\n        }\n        return false;\n    }\n    \n    function __callback(bytes32 myid, string result) {\n        __callback(myid, result, new bytes(0));\n    }\n    function __callback(bytes32 myid, string result, bytes proof) {\n    }\n    \n    function oraclize_getPrice(string datasource) oraclizeAPI internal returns (uint){\n        return oraclize.getPrice(datasource);\n    }\n    function oraclize_getPrice(string datasource, uint gaslimit) oraclizeAPI internal returns (uint){\n        return oraclize.getPrice(datasource, gaslimit);\n    }\n    \n    function oraclize_query(string datasource, string arg) oraclizeAPI internal returns (bytes32 id){\n        uint price = oraclize.getPrice(datasource);\n        if (price > 1 ether + tx.gasprice*200000) return 0; // unexpectedly high price\n        return oraclize.query.value(price)(0, datasource, arg);\n    }\n    function oraclize_query(uint timestamp, string datasource, string arg) oraclizeAPI internal returns (bytes32 id){\n        uint price = oraclize.getPrice(datasource);\n        if (price > 1 ether + tx.gasprice*200000) return 0; // unexpectedly high price\n        return oraclize.query.value(price)(timestamp, datasource, arg);\n    }\n    function oraclize_query(uint timestamp, string datasource, string arg, uint gaslimit) oraclizeAPI internal returns (bytes32 id){\n        uint price = oraclize.getPrice(datasource, gaslimit);\n        if (price > 1 ether + tx.gasprice*gaslimit) return 0; // unexpectedly high price\n        return oraclize.query_withGasLimit.value(price)(timestamp, datasource, arg, gaslimit);\n    }\n    function oraclize_query(string datasource, string arg, uint gaslimit) oraclizeAPI internal returns (bytes32 id){\n        uint price = oraclize.getPrice(datasource, gaslimit);\n        if (price > 1 ether + tx.gasprice*gaslimit) return 0; // unexpectedly high price\n        return oraclize.query_withGasLimit.value(price)(0, datasource, arg, gaslimit);\n    }\n    function oraclize_query(string datasource, string arg1, string arg2) oraclizeAPI internal returns (bytes32 id){\n        uint price = oraclize.getPrice(datasource);\n        if (price > 1 ether + tx.gasprice*200000) return 0; // unexpectedly high price\n        return oraclize.query2.value(price)(0, datasource, arg1, arg2);\n    }\n    function oraclize_query(uint timestamp, string datasource, string arg1, string arg2) oraclizeAPI internal returns (bytes32 id){\n        uint price = oraclize.getPrice(datasource);\n        if (price > 1 ether + tx.gasprice*200000) return 0; // unexpectedly high price\n        return oraclize.query2.value(price)(timestamp, datasource, arg1, arg2);\n    }\n    function oraclize_query(uint timestamp, string datasource, string arg1, string arg2, uint gaslimit) oraclizeAPI internal returns (bytes32 id){\n        uint price = oraclize.getPrice(datasource, gaslimit);\n        if (price > 1 ether + tx.gasprice*gaslimit) return 0; // unexpectedly high price\n        return oraclize.query2_withGasLimit.value(price)(timestamp, datasource, arg1, arg2, gaslimit);\n    }\n    function oraclize_query(string datasource, string arg1, string arg2, uint gaslimit) oraclizeAPI internal returns (bytes32 id){\n        uint price = oraclize.getPrice(datasource, gaslimit);\n        if (price > 1 ether + tx.gasprice*gaslimit) return 0; // unexpectedly high price\n        return oraclize.query2_withGasLimit.value(price)(0, datasource, arg1, arg2, gaslimit);\n    }\n    function oraclize_cbAddress() oraclizeAPI internal returns (address){\n        return oraclize.cbAddress();\n    }\n    function oraclize_setProof(byte proofP) oraclizeAPI internal {\n        return oraclize.setProofType(proofP);\n    }\n    function oraclize_setCustomGasPrice(uint gasPrice) oraclizeAPI internal {\n        return oraclize.setCustomGasPrice(gasPrice);\n    }    \n    function oraclize_setConfig(bytes32 config) oraclizeAPI internal {\n        return oraclize.setConfig(config);\n    }\n\n    function getCodeSize(address _addr) constant internal returns(uint _size) {\n        assembly {\n            _size := extcodesize(_addr)\n        }\n    }\n\n\n    function parseAddr(string _a) internal returns (address){\n        bytes memory tmp = bytes(_a);\n        uint160 iaddr = 0;\n        uint160 b1;\n        uint160 b2;\n        for (uint i=2; i<2+2*20; i+=2){\n            iaddr *= 256;\n            b1 = uint160(tmp[i]);\n            b2 = uint160(tmp[i+1]);\n            if ((b1 >= 97)&&(b1 <= 102)) b1 -= 87;\n            else if ((b1 >= 48)&&(b1 <= 57)) b1 -= 48;\n            if ((b2 >= 97)&&(b2 <= 102)) b2 -= 87;\n            else if ((b2 >= 48)&&(b2 <= 57)) b2 -= 48;\n            iaddr += (b1*16+b2);\n        }\n        return address(iaddr);\n    }\n\n\n    function strCompare(string _a, string _b) internal returns (int) {\n        bytes memory a = bytes(_a);\n        bytes memory b = bytes(_b);\n        uint minLength = a.length;\n        if (b.length < minLength) minLength = b.length;\n        for (uint i = 0; i < minLength; i ++)\n            if (a[i] < b[i])\n                return -1;\n            else if (a[i] > b[i])\n                return 1;\n        if (a.length < b.length)\n            return -1;\n        else if (a.length > b.length)\n            return 1;\n        else\n            return 0;\n   } \n\n    function indexOf(string _haystack, string _needle) internal returns (int)\n    {\n        bytes memory h = bytes(_haystack);\n        bytes memory n = bytes(_needle);\n        if(h.length < 1 || n.length < 1 || (n.length > h.length)) \n            return -1;\n        else if(h.length > (2**128 -1))\n            return -1;                                  \n        else\n        {\n            uint subindex = 0;\n            for (uint i = 0; i < h.length; i ++)\n            {\n                if (h[i] == n[0])\n                {\n                    subindex = 1;\n                    while(subindex < n.length && (i + subindex) < h.length && h[i + subindex] == n[subindex])\n                    {\n                        subindex++;\n                    }   \n                    if(subindex == n.length)\n                        return int(i);\n                }\n            }\n            return -1;\n        }   \n    }\n\n    function strConcat(string _a, string _b, string _c, string _d, string _e) internal returns (string){\n        bytes memory _ba = bytes(_a);\n        bytes memory _bb = bytes(_b);\n        bytes memory _bc = bytes(_c);\n        bytes memory _bd = bytes(_d);\n        bytes memory _be = bytes(_e);\n        string memory abcde = new string(_ba.length + _bb.length + _bc.length + _bd.length + _be.length);\n        bytes memory babcde = bytes(abcde);\n        uint k = 0;\n        for (uint i = 0; i < _ba.length; i++) babcde[k++] = _ba[i];\n        for (i = 0; i < _bb.length; i++) babcde[k++] = _bb[i];\n        for (i = 0; i < _bc.length; i++) babcde[k++] = _bc[i];\n        for (i = 0; i < _bd.length; i++) babcde[k++] = _bd[i];\n        for (i = 0; i < _be.length; i++) babcde[k++] = _be[i];\n        return string(babcde);\n    }\n    \n    function strConcat(string _a, string _b, string _c, string _d) internal returns (string) {\n        return strConcat(_a, _b, _c, _d, \"\");\n    }\n\n    function strConcat(string _a, string _b, string _c) internal returns (string) {\n        return strConcat(_a, _b, _c, \"\", \"\");\n    }\n\n    function strConcat(string _a, string _b) internal returns (string) {\n        return strConcat(_a, _b, \"\", \"\", \"\");\n    }\n\n    // parseInt\n    function parseInt(string _a) internal returns (uint) {\n        return parseInt(_a, 0);\n    }\n\n    // parseInt(parseFloat*10^_b)\n    function parseInt(string _a, uint _b) internal returns (uint) {\n        bytes memory bresult = bytes(_a);\n        uint mint = 0;\n        bool decimals = false;\n        for (uint i=0; i<bresult.length; i++){\n            if ((bresult[i] >= 48)&&(bresult[i] <= 57)){\n                if (decimals){\n                   if (_b == 0) break;\n                    else _b--;\n                }\n                mint *= 10;\n                mint += uint(bresult[i]) - 48;\n            } else if (bresult[i] == 46) decimals = true;\n        }\n        if (_b > 0) mint *= 10**_b;\n        return mint;\n    }\n    \n    function uint2str(uint i) internal returns (string){\n        if (i == 0) return \"0\";\n        uint j = i;\n        uint len;\n        while (j != 0){\n            len++;\n            j /= 10;\n        }\n        bytes memory bstr = new bytes(len);\n        uint k = len - 1;\n        while (i != 0){\n            bstr[k--] = byte(48 + i % 10);\n            i /= 10;\n        }\n        return string(bstr);\n    }\n    \n    \n\n}\n// </ORACLIZE_API>\n\n\n\ncontract mortal {\n\taddress owner;\n\n\tfunction mortal() {\n\t\towner = msg.sender;\n\t}\n\n\tfunction kill() internal {\n\t\tsuicide(owner);\n\t}\n}\n\n\n\n\nlibrary strings {\n    struct slice {\n        uint _len;\n        uint _ptr;\n    }\n\n    function memcpy(uint dest, uint src, uint len) private {\n        // Copy word-length chunks while possible\n        for(; len >= 32; len -= 32) {\n            assembly {\n                mstore(dest, mload(src))\n            }\n            dest += 32;\n            src += 32;\n        }\n\n        // Copy remaining bytes\n        uint mask = 256 ** (32 - len) - 1;\n        assembly {\n            let srcpart := and(mload(src), not(mask))\n            let destpart := and(mload(dest), mask)\n            mstore(dest, or(destpart, srcpart))\n        }\n    }\n\n    /**\n     * @dev Returns a slice containing the entire string.\n     * @param self The string to make a slice from.\n     * @return A newly allocated slice containing the entire string.\n     */\n    function toSlice(string self) internal returns (slice) {\n        uint ptr;\n        assembly {\n            ptr := add(self, 0x20)\n        }\n        return slice(bytes(self).length, ptr);\n    }\n\n    /**\n     * @dev Returns the length of a null-terminated bytes32 string.\n     * @param self The value to find the length of.\n     * @return The length of the string, from 0 to 32.\n     */\n    function len(bytes32 self) internal returns (uint) {\n        uint ret;\n        if (self == 0)\n            return 0;\n        if (self & 0xffffffffffffffffffffffffffffffff == 0) {\n            ret += 16;\n            self = bytes32(uint(self) / 0x100000000000000000000000000000000);\n        }\n        if (self & 0xffffffffffffffff == 0) {\n            ret += 8;\n            self = bytes32(uint(self) / 0x10000000000000000);\n        }\n        if (self & 0xffffffff == 0) {\n            ret += 4;\n            self = bytes32(uint(self) / 0x100000000);\n        }\n        if (self & 0xffff == 0) {\n            ret += 2;\n            self = bytes32(uint(self) / 0x10000);\n        }\n        if (self & 0xff == 0) {\n            ret += 1;\n        }\n        return 32 - ret;\n    }\n\n    /**\n     * @dev Returns a slice containing the entire bytes32, interpreted as a\n     *      null-termintaed utf-8 string.\n     * @param self The bytes32 value to convert to a slice.\n     * @return A new slice containing the value of the input argument up to the\n     *         first null.\n     */\n    function toSliceB32(bytes32 self) internal returns (slice ret) {\n        // Allocate space for `self` in memory, copy it there, and point ret at it\n        assembly {\n            let ptr := mload(0x40)\n            mstore(0x40, add(ptr, 0x20))\n            mstore(ptr, self)\n            mstore(add(ret, 0x20), ptr)\n        }\n        ret._len = len(self);\n    }\n\n    /**\n     * @dev Returns a new slice containing the same data as the current slice.\n     * @param self The slice to copy.\n     * @return A new slice containing the same data as `self`.\n     */\n    function copy(slice self) internal returns (slice) {\n        return slice(self._len, self._ptr);\n    }\n\n    /**\n     * @dev Copies a slice to a new string.\n     * @param self The slice to copy.\n     * @return A newly allocated string containing the slice's text.\n     */\n    function toString(slice self) internal returns (string) {\n        var ret = new string(self._len);\n        uint retptr;\n        assembly { retptr := add(ret, 32) }\n\n        memcpy(retptr, self._ptr, self._len);\n        return ret;\n    }\n\n    /**\n     * @dev Returns the length in runes of the slice. Note that this operation\n     *      takes time proportional to the length of the slice; avoid using it\n     *      in loops, and call `slice.empty()` if you only need to know whether\n     *      the slice is empty or not.\n     * @param self The slice to operate on.\n     * @return The length of the slice in runes.\n     */\n    function len(slice self) internal returns (uint) {\n        // Starting at ptr-31 means the LSB will be the byte we care about\n        var ptr = self._ptr - 31;\n        var end = ptr + self._len;\n        for (uint len = 0; ptr < end; len++) {\n            uint8 b;\n            assembly { b := and(mload(ptr), 0xFF) }\n            if (b < 0x80) {\n                ptr += 1;\n            } else if(b < 0xE0) {\n                ptr += 2;\n            } else if(b < 0xF0) {\n                ptr += 3;\n            } else if(b < 0xF8) {\n                ptr += 4;\n            } else if(b < 0xFC) {\n                ptr += 5;\n            } else {\n                ptr += 6;\n            }\n        }\n        return len;\n    }\n\n    /**\n     * @dev Returns true if the slice is empty (has a length of 0).\n     * @param self The slice to operate on.\n     * @return True if the slice is empty, False otherwise.\n     */\n    function empty(slice self) internal returns (bool) {\n        return self._len == 0;\n    }\n\n    /**\n     * @dev Returns a positive number if `other` comes lexicographically after\n     *      `self`, a negative number if it comes before, or zero if the\n     *      contents of the two slices are equal. Comparison is done per-rune,\n     *      on unicode codepoints.\n     * @param self The first slice to compare.\n     * @param other The second slice to compare.\n     * @return The result of the comparison.\n     */\n    function compare(slice self, slice other) internal returns (int) {\n        uint shortest = self._len;\n        if (other._len < self._len)\n            shortest = other._len;\n\n        var selfptr = self._ptr;\n        var otherptr = other._ptr;\n        for (uint idx = 0; idx < shortest; idx += 32) {\n            uint a;\n            uint b;\n            assembly {\n                a := mload(selfptr)\n                b := mload(otherptr)\n            }\n            if (a != b) {\n                // Mask out irrelevant bytes and check again\n                uint mask = ~(2 ** (8 * (32 - shortest + idx)) - 1);\n                var diff = (a & mask) - (b & mask);\n                if (diff != 0)\n                    return int(diff);\n            }\n            selfptr += 32;\n            otherptr += 32;\n        }\n        return int(self._len) - int(other._len);\n    }\n\n    /**\n     * @dev Returns true if the two slices contain the same text.\n     * @param self The first slice to compare.\n     * @param self The second slice to compare.\n     * @return True if the slices are equal, false otherwise.\n     */\n    function equals(slice self, slice other) internal returns (bool) {\n        return compare(self, other) == 0;\n    }\n\n    /**\n     * @dev Extracts the first rune in the slice into `rune`, advancing the\n     *      slice to point to the next rune and returning `self`.\n     * @param self The slice to operate on.\n     * @param rune The slice that will contain the first rune.\n     * @return `rune`.\n     */\n    function nextRune(slice self, slice rune) internal returns (slice) {\n        rune._ptr = self._ptr;\n\n        if (self._len == 0) {\n            rune._len = 0;\n            return rune;\n        }\n\n        uint len;\n        uint b;\n        // Load the first byte of the rune into the LSBs of b\n        assembly { b := and(mload(sub(mload(add(self, 32)), 31)), 0xFF) }\n        if (b < 0x80) {\n            len = 1;\n        } else if(b < 0xE0) {\n            len = 2;\n        } else if(b < 0xF0) {\n            len = 3;\n        } else {\n            len = 4;\n        }\n\n        // Check for truncated codepoints\n        if (len > self._len) {\n            rune._len = self._len;\n            self._ptr += self._len;\n            self._len = 0;\n            return rune;\n        }\n\n        self._ptr += len;\n        self._len -= len;\n        rune._len = len;\n        return rune;\n    }\n\n    /**\n     * @dev Returns the first rune in the slice, advancing the slice to point\n     *      to the next rune.\n     * @param self The slice to operate on.\n     * @return A slice containing only the first rune from `self`.\n     */\n    function nextRune(slice self) internal returns (slice ret) {\n        nextRune(self, ret);\n    }\n\n    /**\n     * @dev Returns the number of the first codepoint in the slice.\n     * @param self The slice to operate on.\n     * @return The number of the first codepoint in the slice.\n     */\n    function ord(slice self) internal returns (uint ret) {\n        if (self._len == 0) {\n            return 0;\n        }\n\n        uint word;\n        uint len;\n        uint div = 2 ** 248;\n\n        // Load the rune into the MSBs of b\n        assembly { word:= mload(mload(add(self, 32))) }\n        var b = word / div;\n        if (b < 0x80) {\n            ret = b;\n            len = 1;\n        } else if(b < 0xE0) {\n            ret = b & 0x1F;\n            len = 2;\n        } else if(b < 0xF0) {\n            ret = b & 0x0F;\n            len = 3;\n        } else {\n            ret = b & 0x07;\n            len = 4;\n        }\n\n        // Check for truncated codepoints\n        if (len > self._len) {\n            return 0;\n        }\n\n        for (uint i = 1; i < len; i++) {\n            div = div / 256;\n            b = (word / div) & 0xFF;\n            if (b & 0xC0 != 0x80) {\n                // Invalid UTF-8 sequence\n                return 0;\n            }\n            ret = (ret * 64) | (b & 0x3F);\n        }\n\n        return ret;\n    }\n\n    /**\n     * @dev Returns the keccak-256 hash of the slice.\n     * @param self The slice to hash.\n     * @return The hash of the slice.\n     */\n    function keccak(slice self) internal returns (bytes32 ret) {\n        assembly {\n            ret := sha3(mload(add(self, 32)), mload(self))\n        }\n    }\n\n    /**\n     * @dev Returns true if `self` starts with `needle`.\n     * @param self The slice to operate on.\n     * @param needle The slice to search for.\n     * @return True if the slice starts with the provided text, false otherwise.\n     */\n    function startsWith(slice self, slice needle) internal returns (bool) {\n        if (self._len < needle._len) {\n            return false;\n        }\n\n        if (self._ptr == needle._ptr) {\n            return true;\n        }\n\n        bool equal;\n        assembly {\n            let len := mload(needle)\n            let selfptr := mload(add(self, 0x20))\n            let needleptr := mload(add(needle, 0x20))\n            equal := eq(sha3(selfptr, len), sha3(needleptr, len))\n        }\n        return equal;\n    }\n\n    /**\n     * @dev If `self` starts with `needle`, `needle` is removed from the\n     *      beginning of `self`. Otherwise, `self` is unmodified.\n     * @param self The slice to operate on.\n     * @param needle The slice to search for.\n     * @return `self`\n     */\n    function beyond(slice self, slice needle) internal returns (slice) {\n        if (self._len < needle._len) {\n            return self;\n        }\n\n        bool equal = true;\n        if (self._ptr != needle._ptr) {\n            assembly {\n                let len := mload(needle)\n                let selfptr := mload(add(self, 0x20))\n                let needleptr := mload(add(needle, 0x20))\n                equal := eq(sha3(selfptr, len), sha3(needleptr, len))\n            }\n        }\n\n        if (equal) {\n            self._len -= needle._len;\n            self._ptr += needle._len;\n        }\n\n        return self;\n    }\n\n    /**\n     * @dev Returns true if the slice ends with `needle`.\n     * @param self The slice to operate on.\n     * @param needle The slice to search for.\n     * @return True if the slice starts with the provided text, false otherwise.\n     */\n    function endsWith(slice self, slice needle) internal returns (bool) {\n        if (self._len < needle._len) {\n            return false;\n        }\n\n        var selfptr = self._ptr + self._len - needle._len;\n\n        if (selfptr == needle._ptr) {\n            return true;\n        }\n\n        bool equal;\n        assembly {\n            let len := mload(needle)\n            let needleptr := mload(add(needle, 0x20))\n            equal := eq(sha3(selfptr, len), sha3(needleptr, len))\n        }\n\n        return equal;\n    }\n\n    /**\n     * @dev If `self` ends with `needle`, `needle` is removed from the\n     *      end of `self`. Otherwise, `self` is unmodified.\n     * @param self The slice to operate on.\n     * @param needle The slice to search for.\n     * @return `self`\n     */\n    function until(slice self, slice needle) internal returns (slice) {\n        if (self._len < needle._len) {\n            return self;\n        }\n\n        var selfptr = self._ptr + self._len - needle._len;\n        bool equal = true;\n        if (selfptr != needle._ptr) {\n            assembly {\n                let len := mload(needle)\n                let needleptr := mload(add(needle, 0x20))\n                equal := eq(sha3(selfptr, len), sha3(needleptr, len))\n            }\n        }\n\n        if (equal) {\n            self._len -= needle._len;\n        }\n\n        return self;\n    }\n\n    // Returns the memory address of the first byte of the first occurrence of\n    // `needle` in `self`, or the first byte after `self` if not found.\n    function findPtr(uint selflen, uint selfptr, uint needlelen, uint needleptr) private returns (uint) {\n        uint ptr;\n        uint idx;\n\n        if (needlelen <= selflen) {\n            if (needlelen <= 32) {\n                // Optimized assembly for 68 gas per byte on short strings\n                assembly {\n                    let mask := not(sub(exp(2, mul(8, sub(32, needlelen))), 1))\n                    let needledata := and(mload(needleptr), mask)\n                    let end := add(selfptr, sub(selflen, needlelen))\n                    ptr := selfptr\n                    loop:\n                    jumpi(exit, eq(and(mload(ptr), mask), needledata))\n                    ptr := add(ptr, 1)\n                    jumpi(loop, lt(sub(ptr, 1), end))\n                    ptr := add(selfptr, selflen)\n                    exit:\n                }\n                return ptr;\n            } else {\n                // For long needles, use hashing\n                bytes32 hash;\n                assembly { hash := sha3(needleptr, needlelen) }\n                ptr = selfptr;\n                for (idx = 0; idx <= selflen - needlelen; idx++) {\n                    bytes32 testHash;\n                    assembly { testHash := sha3(ptr, needlelen) }\n                    if (hash == testHash)\n                        return ptr;\n                    ptr += 1;\n                }\n            }\n        }\n        return selfptr + selflen;\n    }\n\n    // Returns the memory address of the first byte after the last occurrence of\n    // `needle` in `self`, or the address of `self` if not found.\n    function rfindPtr(uint selflen, uint selfptr, uint needlelen, uint needleptr) private returns (uint) {\n        uint ptr;\n\n        if (needlelen <= selflen) {\n            if (needlelen <= 32) {\n                // Optimized assembly for 69 gas per byte on short strings\n                assembly {\n                    let mask := not(sub(exp(2, mul(8, sub(32, needlelen))), 1))\n                    let needledata := and(mload(needleptr), mask)\n                    ptr := add(selfptr, sub(selflen, needlelen))\n                    loop:\n                    jumpi(ret, eq(and(mload(ptr), mask), needledata))\n                    ptr := sub(ptr, 1)\n                    jumpi(loop, gt(add(ptr, 1), selfptr))\n                    ptr := selfptr\n                    jump(exit)\n                    ret:\n                    ptr := add(ptr, needlelen)\n                    exit:\n                }\n                return ptr;\n            } else {\n                // For long needles, use hashing\n                bytes32 hash;\n                assembly { hash := sha3(needleptr, needlelen) }\n                ptr = selfptr + (selflen - needlelen);\n                while (ptr >= selfptr) {\n                    bytes32 testHash;\n                    assembly { testHash := sha3(ptr, needlelen) }\n                    if (hash == testHash)\n                        return ptr + needlelen;\n                    ptr -= 1;\n                }\n            }\n        }\n        return selfptr;\n    }\n\n    /**\n     * @dev Modifies `self` to contain everything from the first occurrence of\n     *      `needle` to the end of the slice. `self` is set to the empty slice\n     *      if `needle` is not found.\n     * @param self The slice to search and modify.\n     * @param needle The text to search for.\n     * @return `self`.\n     */\n    function find(slice self, slice needle) internal returns (slice) {\n        uint ptr = findPtr(self._len, self._ptr, needle._len, needle._ptr);\n        self._len -= ptr - self._ptr;\n        self._ptr = ptr;\n        return self;\n    }\n\n    /**\n     * @dev Modifies `self` to contain the part of the string from the start of\n     *      `self` to the end of the first occurrence of `needle`. If `needle`\n     *      is not found, `self` is set to the empty slice.\n     * @param self The slice to search and modify.\n     * @param needle The text to search for.\n     * @return `self`.\n     */\n    function rfind(slice self, slice needle) internal returns (slice) {\n        uint ptr = rfindPtr(self._len, self._ptr, needle._len, needle._ptr);\n        self._len = ptr - self._ptr;\n        return self;\n    }\n\n    /**\n     * @dev Splits the slice, setting `self` to everything after the first\n     *      occurrence of `needle`, and `token` to everything before it. If\n     *      `needle` does not occur in `self`, `self` is set to the empty slice,\n     *      and `token` is set to the entirety of `self`.\n     * @param self The slice to split.\n     * @param needle The text to search for in `self`.\n     * @param token An output parameter to which the first token is written.\n     * @return `token`.\n     */\n    function split(slice self, slice needle, slice token) internal returns (slice) {\n        uint ptr = findPtr(self._len, self._ptr, needle._len, needle._ptr);\n        token._ptr = self._ptr;\n        token._len = ptr - self._ptr;\n        if (ptr == self._ptr + self._len) {\n            // Not found\n            self._len = 0;\n        } else {\n            self._len -= token._len + needle._len;\n            self._ptr = ptr + needle._len;\n        }\n        return token;\n    }\n\n    /**\n     * @dev Splits the slice, setting `self` to everything after the first\n     *      occurrence of `needle`, and returning everything before it. If\n     *      `needle` does not occur in `self`, `self` is set to the empty slice,\n     *      and the entirety of `self` is returned.\n     * @param self The slice to split.\n     * @param needle The text to search for in `self`.\n     * @return The part of `self` up to the first occurrence of `delim`.\n     */\n    function split(slice self, slice needle) internal returns (slice token) {\n        split(self, needle, token);\n    }\n\n    /**\n     * @dev Splits the slice, setting `self` to everything before the last\n     *      occurrence of `needle`, and `token` to everything after it. If\n     *      `needle` does not occur in `self`, `self` is set to the empty slice,\n     *      and `token` is set to the entirety of `self`.\n     * @param self The slice to split.\n     * @param needle The text to search for in `self`.\n     * @param token An output parameter to which the first token is written.\n     * @return `token`.\n     */\n    function rsplit(slice self, slice needle, slice token) internal returns (slice) {\n        uint ptr = rfindPtr(self._len, self._ptr, needle._len, needle._ptr);\n        token._ptr = ptr;\n        token._len = self._len - (ptr - self._ptr);\n        if (ptr == self._ptr) {\n            // Not found\n            self._len = 0;\n        } else {\n            self._len -= token._len + needle._len;\n        }\n        return token;\n    }\n\n    /**\n     * @dev Splits the slice, setting `self` to everything before the last\n     *      occurrence of `needle`, and returning everything after it. If\n     *      `needle` does not occur in `self`, `self` is set to the empty slice,\n     *      and the entirety of `self` is returned.\n     * @param self The slice to split.\n     * @param needle The text to search for in `self`.\n     * @return The part of `self` after the last occurrence of `delim`.\n     */\n    function rsplit(slice self, slice needle) internal returns (slice token) {\n        rsplit(self, needle, token);\n    }\n\n    /**\n     * @dev Counts the number of nonoverlapping occurrences of `needle` in `self`.\n     * @param self The slice to search.\n     * @param needle The text to search for in `self`.\n     * @return The number of occurrences of `needle` found in `self`.\n     */\n    function count(slice self, slice needle) internal returns (uint count) {\n        uint ptr = findPtr(self._len, self._ptr, needle._len, needle._ptr) + needle._len;\n        while (ptr <= self._ptr + self._len) {\n            count++;\n            ptr = findPtr(self._len - (ptr - self._ptr), ptr, needle._len, needle._ptr) + needle._len;\n        }\n    }\n\n    /**\n     * @dev Returns True if `self` contains `needle`.\n     * @param self The slice to search.\n     * @param needle The text to search for in `self`.\n     * @return True if `needle` is found in `self`, false otherwise.\n     */\n    function contains(slice self, slice needle) internal returns (bool) {\n        return rfindPtr(self._len, self._ptr, needle._len, needle._ptr) != self._ptr;\n    }\n\n    /**\n     * @dev Returns a newly allocated string containing the concatenation of\n     *      `self` and `other`.\n     * @param self The first slice to concatenate.\n     * @param other The second slice to concatenate.\n     * @return The concatenation of the two strings.\n     */\n    function concat(slice self, slice other) internal returns (string) {\n        var ret = new string(self._len + other._len);\n        uint retptr;\n        assembly { retptr := add(ret, 32) }\n        memcpy(retptr, self._ptr, self._len);\n        memcpy(retptr + self._len, other._ptr, other._len);\n        return ret;\n    }\n\n    /**\n     * @dev Joins an array of slices, using `self` as a delimiter, returning a\n     *      newly allocated string.\n     * @param self The delimiter to use.\n     * @param parts A list of slices to join.\n     * @return A newly allocated string containing all the slices in `parts`,\n     *         joined with `self`.\n     */\n    function join(slice self, slice[] parts) internal returns (string) {\n        if (parts.length == 0)\n            return \"\";\n\n        uint len = self._len * (parts.length - 1);\n        for(uint i = 0; i < parts.length; i++)\n            len += parts[i]._len;\n\n        var ret = new string(len);\n        uint retptr;\n        assembly { retptr := add(ret, 32) }\n\n        for(i = 0; i < parts.length; i++) {\n            memcpy(retptr, parts[i]._ptr, parts[i]._len);\n            retptr += parts[i]._len;\n            if (i < parts.length - 1) {\n                memcpy(retptr, self._ptr, self._len);\n                retptr += self._len;\n            }\n        }\n\n        return ret;\n    }\n}\n\n      \n///////////////////////////////////////////////////////////////\ncontract EmploymentAgreement is usingOraclize{\n\n\tstring public ETHUSD;\n\n\tevent newOraclizeQuery(string description);\n    event newKrakenPriceTicker(string price);\n\n\n\taddress public employer;\n\taddress public employee;\n\tuint public outstandingBalance;\n\tuint public lastPaymentTime;\n\tuint constant PAY_PERIOD = 4 weeks;\n\n\tfunction constructor() public {\n\t\temployer = msg.sender;\n\t\tlastPaymentTime = now;\n\n        oraclize_setProof(proofType_TLSNotary | proofStorage_IPFS);\n        update();\n\n\t}\n\tevent paymentRequest(address employee, uint oustandingBalance);\n\n\tfunction requestPayment(uint eth_per_three_oz_gold) private {\n\t\tif(lastPaymentTime>PAY_PERIOD){\n\t\t\toutstandingBalance+= eth_per_three_oz_gold;\n\t\t}\n\t}\n\n\tfunction payEmployee() payable {\n\t\toutstandingBalance = outstandingBalance-msg.value;\n\t\temployee.transfer(msg.value);\n\t}\n\n\n\tfunction __callback(bytes32 myid, string result, bytes proof) {\n        if (msg.sender != oraclize_cbAddress()) throw;\n        ETHUSD = result;\n        newKrakenPriceTicker(ETHUSD);\n        update();\n    }\n\n\tfunction update() payable {\n\t\tif (oraclize.getPrice(\"URL\") > this.balance) {\n            newOraclizeQuery(\"Oraclize query was NOT sent, please add some ETH to cover for the query fee\");\n        } else {\n            newOraclizeQuery(\"Oraclize query was sent, standing by for the answer..\");\n            oraclize_query(60, \"URL\", \"json(https://api.kraken.com/0/public/Ticker?pair=ETHUSD).result.XETHZUSD.c.0\");\n        }\n    }\n\n    function getUSD() returns(string){\n    \treturn(ETHUSD);\n    }\n\n}\n",
  "sourcePath": "/Users/brandonbryant/Desktop/EmploymentAgreement/contracts/EmploymentAgreement.sol",
  "compiler": {
    "name": "solc",
    "version": "0.4.21+commit.dfe3193c.Emscripten.clang"
  },
  "schemaVersion": "2.0.0",
  "updatedAt": "2018-05-29T02:21:48.867Z"
}