{
  "contractName": "EmploymentAgreement",
  "abi": [
    {
      "constant": true,
      "inputs": [],
      "name": "lastGoldUpdateTime",
      "outputs": [
        {
          "name": "",
          "type": "uint256"
        }
      ],
      "payable": false,
      "stateMutability": "view",
      "type": "function"
    },
    {
      "constant": true,
      "inputs": [],
      "name": "oraclize_USD_ID",
      "outputs": [
        {
          "name": "",
          "type": "bytes32"
        }
      ],
      "payable": false,
      "stateMutability": "view",
      "type": "function"
    },
    {
      "constant": true,
      "inputs": [],
      "name": "ETH_USD",
      "outputs": [
        {
          "name": "",
          "type": "uint256"
        }
      ],
      "payable": false,
      "stateMutability": "view",
      "type": "function"
    },
    {
      "constant": true,
      "inputs": [],
      "name": "oraclize_GOLD_ID",
      "outputs": [
        {
          "name": "",
          "type": "bytes32"
        }
      ],
      "payable": false,
      "stateMutability": "view",
      "type": "function"
    },
    {
      "constant": true,
      "inputs": [],
      "name": "lastEthUpdateTime",
      "outputs": [
        {
          "name": "",
          "type": "uint256"
        }
      ],
      "payable": false,
      "stateMutability": "view",
      "type": "function"
    },
    {
      "constant": true,
      "inputs": [],
      "name": "GOLD_USD",
      "outputs": [
        {
          "name": "",
          "type": "uint256"
        }
      ],
      "payable": false,
      "stateMutability": "view",
      "type": "function"
    },
    {
      "constant": false,
      "inputs": [],
      "name": "constructor",
      "outputs": [],
      "payable": true,
      "stateMutability": "payable",
      "type": "function"
    },
    {
      "constant": false,
      "inputs": [],
      "name": "updatePrices",
      "outputs": [],
      "payable": true,
      "stateMutability": "payable",
      "type": "function"
    },
    {
      "constant": false,
      "inputs": [
        {
          "name": "_oraclizeID",
          "type": "bytes32"
        },
        {
          "name": "_result",
          "type": "string"
        }
      ],
      "name": "__callback",
      "outputs": [],
      "payable": false,
      "stateMutability": "nonpayable",
      "type": "function"
    },
    {
      "constant": false,
      "inputs": [
        {
          "name": "myid",
          "type": "bytes32"
        },
        {
          "name": "result",
          "type": "string"
        },
        {
          "name": "proof",
          "type": "bytes"
        }
      ],
      "name": "__callback",
      "outputs": [],
      "payable": false,
      "stateMutability": "nonpayable",
      "type": "function"
    }
  ],
  "bytecode": "0x608060405234801561001057600080fd5b506110d4806100206000396000f3006080604052600436106100a4576000357c0100000000000000000000000000000000000000000000000000000000900463ffffffff16806327dc297e146100a9578063336f3cad1461012057806338bbfa501461014b57806346c784d91461020857806349dd12621461023b5780636260f55b1461024557806371d55d141461027057806390fa17bb146102a3578063995e1874146102ad578063f5cb7915146102d8575b600080fd5b3480156100b557600080fd5b5061011e6004803603810190808035600019169060200190929190803590602001908201803590602001908080601f0160208091040260200160405190810160405280939291908181526020018383808284378201915050505050509192919290505050610303565b005b34801561012c57600080fd5b5061013561038c565b6040518082815260200191505060405180910390f35b34801561015757600080fd5b506102066004803603810190808035600019169060200190929190803590602001908201803590602001908080601f0160208091040260200160405190810160405280939291908181526020018383808284378201915050505050509192919290803590602001908201803590602001908080601f0160208091040260200160405190810160405280939291908181526020018383808284378201915050505050509192919290505050610392565b005b34801561021457600080fd5b5061021d610397565b60405180826000191660001916815260200191505060405180910390f35b61024361039d565b005b34801561025157600080fd5b5061025a6103a7565b6040518082815260200191505060405180910390f35b34801561027c57600080fd5b506102856103ad565b60405180826000191660001916815260200191505060405180910390f35b6102ab6103b3565b005b3480156102b957600080fd5b506102c26103bd565b6040518082815260200191505060405180910390f35b3480156102e457600080fd5b506102ed6103c3565b6040518082815260200191505060405180910390f35b61030b6103c9565b73ffffffffffffffffffffffffffffffffffffffff163373ffffffffffffffffffffffffffffffffffffffff1614151561034457600080fd5b60045460001916826000191614156103715761035f816105dc565b60028190555042600681905550610388565b61037a816105dc565b600381905550426007819055505b5050565b60075481565b505050565b60045481565b6103a56105f0565b565b60025481565b60055481565b6103bb61039d565b565b60065481565b60035481565b6000806000809054906101000a900473ffffffffffffffffffffffffffffffffffffffff1673ffffffffffffffffffffffffffffffffffffffff1614156104165761041460006106bd565b505b6000809054906101000a900473ffffffffffffffffffffffffffffffffffffffff1673ffffffffffffffffffffffffffffffffffffffff166338cc48316040518163ffffffff167c0100000000000000000000000000000000000000000000000000000000028152600401602060405180830381600087803b15801561049b57600080fd5b505af11580156104af573d6000803e3d6000fd5b505050506040513d60208110156104c557600080fd5b8101908080519060200190929190505050600160006101000a81548173ffffffffffffffffffffffffffffffffffffffff021916908373ffffffffffffffffffffffffffffffffffffffff160217905550600160009054906101000a900473ffffffffffffffffffffffffffffffffffffffff1673ffffffffffffffffffffffffffffffffffffffff1663c281d19e6040518163ffffffff167c0100000000000000000000000000000000000000000000000000000000028152600401602060405180830381600087803b15801561059c57600080fd5b505af11580156105b0573d6000803e3d6000fd5b505050506040513d60208110156105c657600080fd5b8101908080519060200190929190505050905090565b60006105e9826000610952565b9050919050565b6106b16040805190810160405280600381526020017f55524c0000000000000000000000000000000000000000000000000000000000815250608060405190810160405280604c81526020017f6a736f6e2868747470733a2f2f6170692e6b72616b656e2e636f6d2f302f707581526020017f626c69632f5469636b65723f706169723d455448555344292e726573756c742e81526020017f584554485a5553442e632e300000000000000000000000000000000000000000815250610c46565b60048160001916905550565b6000806106dd731d3b2638a7cc9f2cb3d298a3da7a90b67e5506ed61109d565b111561074057731d3b2638a7cc9f2cb3d298a3da7a90b67e5506ed6000806101000a81548173ffffffffffffffffffffffffffffffffffffffff021916908373ffffffffffffffffffffffffffffffffffffffff1602179055506001905061094d565b600061075f73c03a2615d5efaf5f49f60b7bb6583eaec212fdf161109d565b11156107c25773c03a2615d5efaf5f49f60b7bb6583eaec212fdf16000806101000a81548173ffffffffffffffffffffffffffffffffffffffff021916908373ffffffffffffffffffffffffffffffffffffffff1602179055506001905061094d565b60006107e17320e12a1f859b3feae5fb2a0a32c18f5a65555bbf61109d565b1115610844577320e12a1f859b3feae5fb2a0a32c18f5a65555bbf6000806101000a81548173ffffffffffffffffffffffffffffffffffffffff021916908373ffffffffffffffffffffffffffffffffffffffff1602179055506001905061094d565b60006108637393bbbe5ce77034e3095f0479919962a903f898ad61109d565b11156108c6577393bbbe5ce77034e3095f0479919962a903f898ad6000806101000a81548173ffffffffffffffffffffffffffffffffffffffff021916908373ffffffffffffffffffffffffffffffffffffffff1602179055506001905061094d565b60006108e57351efaf4c8b3c9afbd5ab9f4bbc82784ab6ef8faa61109d565b1115610948577351efaf4c8b3c9afbd5ab9f4bbc82784ab6ef8faa6000806101000a81548173ffffffffffffffffffffffffffffffffffffffff021916908373ffffffffffffffffffffffffffffffffffffffff1602179055506001905061094d565b600090505b919050565b6000606060008060008693506000925060009150600090505b8351811015610c275760307f01000000000000000000000000000000000000000000000000000000000000000284828151811015156109a657fe5b9060200101517f010000000000000000000000000000000000000000000000000000000000000090047f0100000000000000000000000000000000000000000000000000000000000000027effffffffffffffffffffffffffffffffffffffffffffffffffffffffffffff191610158015610abe575060397f0100000000000000000000000000000000000000000000000000000000000000028482815181101515610a4e57fe5b9060200101517f010000000000000000000000000000000000000000000000000000000000000090047f0100000000000000000000000000000000000000000000000000000000000000027effffffffffffffffffffffffffffffffffffffffffffffffffffffffffffff191611155b15610b6f578115610ae1576000861415610ad757610c27565b8580600190039650505b600a8302925060308482815181101515610af757fe5b9060200101517f010000000000000000000000000000000000000000000000000000000000000090047f0100000000000000000000000000000000000000000000000000000000000000027f010000000000000000000000000000000000000000000000000000000000000090040383019250610c1a565b602e7f0100000000000000000000000000000000000000000000000000000000000000028482815181101515610ba157fe5b9060200101517f010000000000000000000000000000000000000000000000000000000000000090047f0100000000000000000000000000000000000000000000000000000000000000027effffffffffffffffffffffffffffffffffffffffffffffffffffffffffffff19161415610c1957600191505b5b808060010191505061096b565b6000861115610c395785600a0a830292505b8294505050505092915050565b60008060008060009054906101000a900473ffffffffffffffffffffffffffffffffffffffff1673ffffffffffffffffffffffffffffffffffffffff161415610c9557610c9360006106bd565b505b6000809054906101000a900473ffffffffffffffffffffffffffffffffffffffff1673ffffffffffffffffffffffffffffffffffffffff166338cc48316040518163ffffffff167c0100000000000000000000000000000000000000000000000000000000028152600401602060405180830381600087803b158015610d1a57600080fd5b505af1158015610d2e573d6000803e3d6000fd5b505050506040513d6020811015610d4457600080fd5b8101908080519060200190929190505050600160006101000a81548173ffffffffffffffffffffffffffffffffffffffff021916908373ffffffffffffffffffffffffffffffffffffffff160217905550600160009054906101000a900473ffffffffffffffffffffffffffffffffffffffff1673ffffffffffffffffffffffffffffffffffffffff1663524f3889856040518263ffffffff167c01000000000000000000000000000000000000000000000000000000000281526004018080602001828103825283818151815260200191508051906020019080838360005b83811015610e3f578082015181840152602081019050610e24565b50505050905090810190601f168015610e6c5780820380516001836020036101000a031916815260200191505b5092505050602060405180830381600087803b158015610e8b57600080fd5b505af1158015610e9f573d6000803e3d6000fd5b505050506040513d6020811015610eb557600080fd5b8101908080519060200190929190505050905062030d403a02670de0b6b3a764000001811115610eeb5760006001029150611096565b600160009054906101000a900473ffffffffffffffffffffffffffffffffffffffff1673ffffffffffffffffffffffffffffffffffffffff1663adf59f9982600087876040518563ffffffff167c0100000000000000000000000000000000000000000000000000000000028152600401808481526020018060200180602001838103835285818151815260200191508051906020019080838360005b83811015610fa3578082015181840152602081019050610f88565b50505050905090810190601f168015610fd05780820380516001836020036101000a031916815260200191505b50838103825284818151815260200191508051906020019080838360005b83811015611009578082015181840152602081019050610fee565b50505050905090810190601f1680156110365780820380516001836020036101000a031916815260200191505b50955050505050506020604051808303818588803b15801561105757600080fd5b505af115801561106b573d6000803e3d6000fd5b50505050506040513d602081101561108257600080fd5b810190808051906020019092919050505091505b5092915050565b6000813b90509190505600a165627a7a72305820ab2f056856dcc00760018b163748269e6429633a4ac091e8478bd993154ec8910029",
  "source": "pragma solidity ^0.4.23;//please import oraclizeAPI_pre0.4.sol when solidity < 0.4.0\nimport \"./OracalizeI.sol\";\ncontract EmploymentAgreement is usingOraclize {\n\n  uint public ETH_USD;\n  uint public GOLD_USD;\n  \n  bytes32 public oraclize_USD_ID;\n  bytes32 public oraclize_GOLD_ID;\n  \n  uint public lastEthUpdateTime;\n  uint public lastGoldUpdateTime;\n    //Employee[]\n    //mapping(address => )\n\n\n  /*Employee public brandon = Employee(3,now,0);\n\n  struct Employee{\n    //in terms of ounces of gold\n    uint id; \n    uint wage;\n    uint lastPaid;\n    uint balanceDue;\n\n  }\n*/\n  function constructor() payable{ \n    updatePrices();\n  }\n\n  function updatePrices() payable {\n    getETHUSD();\n   // getGOLDUSD();\n  }\n\n  function getETHUSD() internal {\n    oraclize_USD_ID = oraclize_query(\"URL\", \"json(https://api.kraken.com/0/public/Ticker?pair=ETHUSD).result.XETHZUSD.c.0\");\n  }\n  function getGOLDUSD() internal {\n    oraclize_GOLD_ID = oraclize_query(\"URL\", \"html(https://www.bullionvault.com/gold-price-chart.do).xpath(.//*[@class='row']/div[2]/div[1]/div/div/table/tbody/tr[3]/td[1]/span\");\n  }\n\n  function __callback(bytes32 _oraclizeID, string _result) {\n    if(msg.sender != oraclize_cbAddress()) throw;\n    if( _oraclizeID == oraclize_USD_ID){\n        ETH_USD = parseInt(_result);\n        lastEthUpdateTime = now;\n    }\n    else{\n        GOLD_USD = parseInt(_result);\n        lastGoldUpdateTime = now;\n        //GOLD_USD = 5;\n    }\n  }\n\n\n\n}\n\n/*\ncontract EmploymentAgreement is usingOraclize{\n\n\tstring public ETHUSD;\n\n\tevent newOraclizeQuery(string description);\n    event newKrakenPriceTicker(string price);\n\n\n\taddress public employer;\n\taddress public employee;\n\tuint public outstandingBalance;\n\tuint public lastPaymentTime;\n\tuint constant PAY_PERIOD = 4 weeks;\n\n\tfunction constructor() public {\n\t\temployer = msg.sender;\n\t\tlastPaymentTime = now;\n\n        oraclize_setProof(proofType_TLSNotary | proofStorage_IPFS);\n        update();\n\n\t}\n\tevent paymentRequest(address employee, uint oustandingBalance);\n\n\tfunction requestPayment(uint eth_per_three_oz_gold) private {\n\t\tif(lastPaymentTime>PAY_PERIOD){\n\t\t\toutstandingBalance+= eth_per_three_oz_gold;\n\t\t}\n\t}\n\n\tfunction payEmployee() payable {\n\t\toutstandingBalance = outstandingBalance-msg.value;\n\t\temployee.transfer(msg.value);\n\t}\n\n\n\tfunction __callback(bytes32 myid, string result, bytes proof) {\n        if (msg.sender != oraclize_cbAddress()) throw;\n        ETHUSD = result;\n        newKrakenPriceTicker(ETHUSD);\n        update();\n    }\n\n\tfunction update() payable {\n\t\tif (oraclize.getPrice(\"URL\") > this.balance) {\n            newOraclizeQuery(\"Oraclize query was NOT sent, please add some ETH to cover for the query fee\");\n        } else {\n            newOraclizeQuery(\"Oraclize query was sent, standing by for the answer..\");\n            oraclize_query(60, \"URL\", \"json(https://api.kraken.com/0/public/Ticker?pair=ETHUSD).result.XETHZUSD.c.0\");\n        }\n    }\n\n    function getUSD() returns(string){\n    \treturn(ETHUSD);\n    }\n\n}*/\n",
  "sourcePath": "/Users/bit1/BrandonDev/EmployeeAgreement/contracts/EmploymentAgreement.sol",
  "compiler": {
    "name": "solc",
    "version": "0.4.24+commit.e67f0147.Emscripten.clang"
  },
  "schemaVersion": "2.0.0",
  "updatedAt": "2018-07-13T16:14:14.401Z"
}